:020000040800F2
:10000000284700205D020008C31200088D10000878
:10001000C11200085D040008CD16000800000000B1
:100020000000000000000000000000009D0100082A
:100030005F04000800000000F901000855130008E3
:1000400077020008770200087702000877020008AC
:10005000770200087702000877020008770200089C
:10006000770200087702000877020008770200088C
:10007000770200087702000877020008770200087C
:10008000770200087702000877020008770200086C
:10009000770200087702000877020008770200085C
:1000A000770200087702000877020008770200084C
:1000B000770200087702000877020008770200083C
:1000C000770200087702000877020008770200082C
:1000D000770200087702000877020008C1160008BE
:1000E000770200087702000877020008770200080C
:1000F00077020008770200087702000877020008FC
:1001000077020008770200087702000877020008EB
:1001100077020008770200087702000877020008DB
:1001200077020008770200087702000877020008CB
:1001300077020008770200087702000877020008BB
:1001400077020008770200087702000877020008AB
:10015000770200087702000877020008770200089B
:10016000770200087702000877020008770200088B
:1001700077020008770200087702000800000000FC
:100180007702000877020008DFF80CD000F00AF9C7
:100190000048004759190008284700202C4B1968CF
:1001A0000868B0E8F04F80F30988BFF36F8F4FF015
:1001B000000080F3118870470000000008480068C4
:1001C000006880F308884FF0000080F3148862B65E
:1001D00061B6BFF34F8FBFF36F8F00DF00BF00BF6B
:1001E00008ED00E0DFF80C00016841F470010160E7
:1001F000704700BF88ED00E0EFF30980BFF36F8F19
:10020000134B1A681EF0100F08BF20ED108A20E96A
:10021000F04F106009B44FF0500080F31188BFF325
:100220004F8FBFF36F8F01F071FF4FF0000080F32D
:10023000118809BC19680868B0E8F04F1EF0100F6B
:1002400008BFB0EC108A80F30988BFF36F8F704746
:1002500044000020EFF30580704700000648804707
:1002600006480047FEE7FEE7FEE7FEE7FEE7FEE79B
:10027000FEE7FEE7FEE7FEE7F1130008890100084C
:100280002DE9F05F0546002092469B4688460646CB
:10029000814640241BE0284641464746224600F05E
:1002A00070F853465A46C01A914110D31146184669
:1002B000224600F057F82D1A67EB01084F462246F8
:1002C0000120002100F04EF817EB00094E41201EDE
:1002D000A4F10104DFDC484631462A464346BDE826
:1002E000F09F40EA01039B0703D009E008C9121FF1
:1002F00008C0042AFAD203E011F8013B00F8013BE0
:10030000521EF9D27047D2B201E000F8012B491E0B
:10031000FBD270470022F6E710B513460A460446A2
:100320001946FFF7F0FF204610BD421C10F8011BD4
:100330000029FBD1801A704730B50B4601460020DA
:100340002022012409E021FA02F59D4205D303FA97
:1003500002F5491B04FA02F52844151EA2F1010218
:10036000F1DC30BD202A04DB203A00FA02F1002043
:1003700070479140C2F1200320FA03F319439040E3
:100380007047202A04DB203A21FA02F0002170474E
:1003900021FA02F3D040C2F12002914008431946ED
:1003A00070470000064C074D06E0E06840F001038E
:1003B00094E8070098471034AC42F6D3FFF7E8FE04
:1003C000C0260008E02600080025064C01264FF450
:1003D0007A77A06808B1A56000E0A660384601F011
:1003E0000FFBF6E71400002008B50B4C4FF47A75AC
:1003F0000AA0D4E9011201F06BF9A0680090D4E9D9
:1004000000230EA1144801F073F9134801F086FA95
:10041000284601F0F5FAEBE714000020C0B6D1C081
:10042000C8CECEF1D6B4D0D0D6D06C65643D2564AC
:100430002C626565703D25640D0A000070656F7063
:100440006C653D25642C6C65643D25642C62656596
:10045000703D25640D0A000000030020FEE7704790
:10046000704790F83510022903D0802141650120A2
:100470007047052180F835100068016821F00101FE
:1004800001600020704700002DE9F84F00224FF076
:10049000010803254FF00F0E0B6808FA02F4234001
:1004A000A3426ED14E68012E05D0022E03D0112E2C
:1004B00001D0122E12D186684FEA420C05FA0CF7D1
:1004C000BE43CF6807FA0CF7374387604668A643F8
:1004D0000C79C4F30014944034434460C668570058
:1004E00005FA07FC8C6826EA0C06BC403443C4605D
:1004F0004C68022C01D0122C13D1D40800EB8404D8
:10050000A346D4F8209054074FEAD46A0EFA0AF6AC
:1005100029EA06090E6906FA0AF646EA0906CBF840
:10052000206006680C7926EA0C0604F00304BC403F
:10053000344304604C68E40065D5364C266846F4C4
:1005400080462660246822F0030604F48044009468
:10055000314C3444A446D4F808489607370F0EFAB5
:1005600007F6B4432D4EB04201D1002624E02C4EB4
:10057000B04201D101261FE02A4EB04202D102262C
:100580001AE040E0284EB04201D1032614E0274E85
:10059000B04201D104260FE0254EB04201D105261C
:1005A0000AE0244EB04201D1062605E0224EB042B8
:1005B00001D1072600E00826BE402643CCF8086893
:1005C0001E4E34684F689C43FF0300D51C433460C3
:1005D0001A4C241D26684F689E43BF0300D51E4356
:1005E0002660164E083634684F689C43FF0200D5DB
:1005F0001C433460114E0C3634684F689C43BF0274
:1006000000D51C433460521C102AFFF445AFBDE8EE
:10061000F88F0000443802400030014000000240E2
:100620000004024000080240000C0240001002409A
:100630000014024000180240001C0240003C01402F
:100640000069084000D001207047426931EA020287
:1006500000D10904816170470AB1816170470904C2
:10066000FBE700000148806870470000340000206C
:10067000024881680278114481607047340000208C
:100680000B4810B5016841F400710160016841F444
:1006900080610160016841F480710160032000F015
:1006A00073F80F2000F006F800F024F8002010BDC9
:1006B000003C024070B50D4D04464FF47A71287825
:1006C000B1FBF0F00A490968B1FBF0F000F008FB5B
:1006D00048B9102C07D200222146501E00F034F8F1
:1006E00000206C6070BD012070BD0000340000204F
:1006F000400000200C4882B0016841F48041016054
:10070000006800F4804000900748001F016841F035
:10071000805101600068002200F0805000900F219D
:10072000901E02B000F010B844380240002809DBE7
:1007300000F01F02012191404009800000F1E020FB
:10074000C0F8001170470000F0B40E4B1B680C4657
:10075000C3F30223C3F10705042D00D90425191D95
:10076000072901D2002300E0DB1E012606FA05F16D
:10077000491E214099409E40761E16403143F0BCF0
:1007800000F0CABF0CED00E0064900F0070208685F
:100790004FF6FF03184040EA0220034A1043086066
:1007A000704700000CED00E00000FA052DE9F0476D
:1007B0000E46050065D0DFF81481D8F80000F7B2C6
:1007C00000F00F00B04207D288F80070D8F800009F
:1007D00000F00F00B04254D128683D4C810712D57B
:1007E000400703D5206840F4E050206028780007D7
:1007F00003D5206840F4604020602068A96820F09C
:10080000F000084320602878C0072DD03049686880
:100810000839012812D0022813D0032811D0096802
:10082000890700292DDA216821F0030101432160A5
:10083000FFF718FF814641F2883A0EE00968890304
:10084000EFE709688901ECE7FFF70CFFA0EB09016E
:10085000514502D90320BDE8F0872068696800F09F
:100860000C00B0EB810FEFD1D8F80010404601F03A
:100870000F01B14207D90770006800F00F00B042C5
:1008800001D00120E7E72878400705D52068E9680E
:1008900020F4E050084320602878000706D520683F
:1008A000296920F4604040EAC100206000F038F877
:1008B0002168084AC1F30311515CC8400649086029
:1008C00006480068FFF7F6FE0020C4E7003C02403F
:1008D000083802406C250008400000203800002045
:1008E0000448054900680968044AC1F38221515C43
:1008F000C840704740000020083802407C250008AE
:100900000448054900680968044AC1F34231515C52
:10091000C840704740000020083802407C2500088D
:10092000154810B5006810F00C02144813D0144993
:10093000042A0FD0082A0ED10F4C241F22682368E6
:1009400002F03F025B0207D52068C0F38810A0FBCD
:10095000010106E0084610BD2168C1F38811A1FB22
:1009600000010023FFF78CFC2168C1F30141491C01
:100970004900B0FBF1F010BD083802400024F4003B
:1009800040787D012DE9F84F04006ED02078DFF823
:100990003C93C007A9F104054AD009F1040001689D
:1009A000C1F38101012908D00068C0F38100022849
:1009B0000AD1D9F80000400206D52868800337D54F
:1009C00060680028E1D033E06068B0F5803F10D067
:1009D000B0F5A02F286810D020F480302860286857
:1009E00020F4802028606068A8B1FFF73BFE06462F
:1009F0000DE0286840F48030F4E740F4802028605F
:100A0000F7E700BFFFF72EFE801B642873D8286825
:100A10008003F7D50CE0FFF725FE064605E000BF92
:100A2000FFF720FE801B6428F0D828688003F7D4E5
:100A30002078DFF89C8280074FF0000A3ED5A3485B
:100A4000001D016811F00C0F08D00068C0F3810090
:100A500002280BD1D9F80000400207D4286880078B
:100A600016D5E068012800D112E02BE1E068B8B1AA
:100A70000120C8F80000FFF7F5FD064605E000BFBD
:100A8000FFF7F0FD801B0228C0D828688007F7D543
:100A90002868216920F0F80040EAC10028600DE0D4
:100AA000C8F800A0FFF7DEFD064604E0FFF7DAFD18
:100AB000801B02281FD828688007F7D420780007F9
:100AC00022D5824E83486169703671B1012101607F
:100AD000FFF7C8FD074604E0FFF7C4FDC01B02286E
:100AE00009D830688007F7D50EE0C0F800A0FFF7FE
:100AF000B9FD074605E082E0FFF7B4FDC01B022800
:100B00007DD830688007F7D42078400768D5DFF8B3
:100B1000BCB100270BF13C0BDBF80000C0000BD48C
:100B2000DBF8001041F08051CBF80010DBF800003A
:100B3000012700F080500090674E3068C00510D447
:100B4000306840F480703060FFF78CFD009005E065
:100B5000FFF788FD0099401A022850D83068C00578
:100B6000F6D55A4EA0686C3601280FD0052830689B
:100B700010D020F001003060306820F004003060B8
:100B8000A068B8B1FFF76EFD00900FE0306840F04C
:100B90000100F4E740F004003060F7E7FFF762FD82
:100BA0000099411A41F28830814266D83068800746
:100BB000F4D50EE0FFF756FD009007E0FFF752FD79
:100BC0000099411A41F28830814256D83068800736
:100BD000F4D42FB1DBF8001021F08051CBF80010D5
:100BE000A069C8B33949091D0968C1F38101022907
:100BF0004AD00228504607D0C8F8600000E03CE028
:100C0000FFF730FD04463BE04746C8F86000FFF7B9
:100C100029FD064605E000BFFFF724FD801B0228E2
:100C20002BD828688001F7D4D4E907010843A16ACA
:100C30002A4A490802EB0141626A41EA82110843EB
:100C400094F82C1040EA0161C9F8001001203866C0
:100C5000FFF708FD044606E036E000BFFFF702FD9F
:100C6000001B022809D828688001F7D52CE000BFB6
:100C7000FFF7F8FC001B022802D90320BDE8F88F1B
:100C800028688001F4D41FE00128F7D0D9F80000CB
:100C9000E26900F48001914214D1226A00F03F0120
:100CA00091420FD147F6C071626A0140914209D169
:100CB000A26A00F44031914204D1E16A00F0706010
:100CC000884201D00120D9E70020D7E7043802404C
:100CD00000004742800E4742007000400000FFFFC6
:100CE00010B5401EB0F1807F01D3012010BD4FF040
:100CF000E02460610F21601700F00EFD0020A0616C
:100D000007202061002010BD7047000070B5026808
:100D100004461068D168536910F00F0F52D003F0E9
:100D2000010501F490762E435FD0C20705D0CA05B5
:100D300003D5E26B42F00102E263420705D5DA0710
:100D400003D0E26B42F00202E263820705D5DA07C4
:100D500003D0E26B42F00402E263020707D501F020
:100D600020022A4303D0E26B42F00802E263E26B06
:100D7000002A33D0800604D5880602D5204600F02C
:100D80005BFB20684069E16BC0F38010090700D469
:100D900028B3204600F042FB2068416949061AD575
:100DA000416921F040014161606BA0B11B490165BF
:100DB000606BFFF756FB002810D0606B016DBDE83B
:100DC00070400847830610D58B060ED52046BDE837
:100DD000704000F031BB2046FFF796FF70BD204603
:100DE000FFF792FF0020E06370BD030606D50B06F7
:100DF00004D52046BDE8704000F0FEBB4006F3D5A8
:100E00004806F1D5D168204621F04001D16020216B
:100E100084F8391000F039F970BD00000D14000895
:100E200070B5040004D094F83900002510B106E034
:100E3000012070BD84F83850204600F023F82420AB
:100E400084F839002068C16821F40051C16020464F
:100E500000F03EFB2068016921F4904101612068A7
:100E6000416921F02A0141612068C16841F40051C3
:100E7000C160E563202084F8390084F83A0000203E
:100E800070BD000070B586B0044614216846FFF7B7
:100E900041FA284E2268002127480223032407250F
:100EA000B2421DD1244A1432166846F0100616606C
:100EB000126802F010020592026842F0010202601C
:100EC000006802AA00F00100059082E8320060028A
:100ED000CDE9000369461948FFF7D6FA06B070BDA0
:100EE000174EB242FAD1144A1032166846F48026E0
:100EF0001660126802F480220592026842F0020233
:100F00000260006802AA00F00200059082E8320048
:100F10004FF44060CDE9000369460A48FFF7B4FA90
:100F2000002205212720FFF70FFC2720FFF7FEFBFB
:100F3000D4E70000001001403038024000000240B9
:100F4000004800400004024090F83A30202B22D1A3
:100F5000F9B1F2B190F83830012B1CD08162828552
:100F6000C2850021C163222280F83A2080F838101F
:100F70000168CA6842F48072CA6001684A6942F036
:100F800001024A610068C16841F02001C16000208F
:100F90007047012070470220704700000068084930
:100FA00088420CD10748027822B1074B41785A5445
:100FB000491C4170012203490448FFF7C5BF70472F
:100FC00000480040000000200C010020F80500202F
:100FD0002DE9F843044690F839001F4616460D46A1
:100FE000202850D1B5B1AEB194F8380001284AD0CC
:100FF000012084F838004FF00008C4F83C8021201C
:1010000084F83900FFF72EFBA6848146E68484F835
:10101000388026E00120BDE8F883E08C401EE084A3
:10102000A0684B46B0F5805F4FF000024FF08001A2
:101030002046009703D000F010FBE8B90DE000F067
:101040000CFBC8B928882168C0F3080048602069F3
:1010500008B16D1C05E0AD1C03E0216815F8010B1B
:101060004860E08C0028D8D14B4600224021204621
:10107000009700F0F2FA08B10320CCE7202084F8B2
:1010800039000020C7E70220C5E77047FEE70000EF
:101090000026104C104DDFF8449001274FF40078E3
:1010A0004FF47A7A0EA000F013FB606808B1666016
:1010B00000E0676008212846FFF7C7FA102128469C
:1010C000FFF7C3FA41464846FFF7BFFA504600F023
:1010D00097FCE7E7140000200010024000180240CF
:1010E0004C4544C8CECEF1D6B4D0D0D6D00D0A00EF
:1010F00010B5A4B01C221C496846FFF7F2F8002185
:10110000684600F089FC194C17491C22E0601C312C
:1011100007A8FFF7E6F8002107A800F07DFC1249B8
:1011200020611C2238310EA8FFF7DBF800210EA841
:1011300000F072FC0C4960611C22543115A8FFF7C5
:10114000D0F8002115A800F067FC0749A0611C2217
:1011500070311CA8FFF7C5F800211CA800F05CFC4A
:10116000E06124B010BD0000E0240008140000205D
:101170002DE9F04186B014216846FFF7CBF83048DE
:101180000024016841F010010160016801F01001C4
:101190000591016841F002010160016801F002015E
:1011A0000591016841F008010160016801F0080142
:1011B0000591016841F040010160016801F04001C2
:1011C0000591016841F00101016000681D4F00F0C8
:1011D00001000590002218213846FFF73DFADFF89C
:1011E000688000224FF420714046FFF735FA18203E
:1011F00001250226CDE90005CDE9024669463846BB
:10120000FFF742F9E803CDE9000469460F4802946C
:10121000FFF73AF980200090CDE901546946404635
:101220000394FFF731F96802CDE90005CDE90246E4
:1012300069464046FFF728F906B0BDE8F081000096
:10124000303802400010024000180240000C0240FA
:101250000C4810B50A4901604FF4E13141600021AA
:1012600081600C22C160C0E904128161C161FFF795
:10127000D7FD002803D0BDE81040FFF7F1B810BD3E
:1012800000100140B80500200C4810B50A49016063
:101290004FF416514160002181600C22C160C0E909
:1012A00004128161C161FFF7BBFD002803D0BDE8D6
:1012B0001040FFF7D5B810BD00480040F8050020E9
:1012C000FEE770474FF40047DFF8348001250D4CEE
:1012D00000264FF47A790CA000F0FAF9394640461E
:1012E000FFF7AEF9012808D026600CA0216800F0B5
:1012F000EFF9484600F084FBEDE72560F5E70000D4
:10130000000C024014000020C8CBCCE5C8CECEF1C2
:10131000D6B4D0D0D6D00D0A0000000070656F7032
:101320006C653A3D25640D0A000000004FF47A74A4
:1013300003A000F0CDF9204600F062FBF8E70000C2
:10134000C4ACC8CFC8CECEF1D6B4D0D0D6D00D0A5A
:101350000000000010B5FFF78BF900F0EDFF012849
:1013600003D0BDE8104000F079BF10BD30B593B098
:1013700030216846FEF7CEFF14210CA8FEF7CAFF05
:1013800019480025016841F080510160006800F0B3
:10139000805011901548016841F480410160006857
:1013A000022400F48040119001200390102004904A
:1013B000009406940820CDE90750A820CDE909043F
:1013C00004200B906846FFF7DDFA0CA90F2081E896
:1013D00031004FF4A0500F90E002109005210CA8AE
:1013E000FFF7E4F913B030BD403802400070004010
:1013F0000548016841F47001016003494FF0006045
:10140000803908607047000088ED00E010B5806BFF
:101410000021C185C184FFF777FC10BD0168CA684F
:1014200022F49072CA6001684A6922F001024A619E
:10143000202180F83A10704710B590F83A10222910
:1014400001D0022010BD8168B1F5805F11D0016923
:10145000002901681FD0496801F07F03816A4A1C96
:1014600082620B70C18D491E0904090CC18518D018
:101470002BE00269816A002A0268526805D0D2B264
:101480000A80816A491C8162ECE7C2F308020A8083
:10149000816A891CF7E74A68816A4B1C83620A707B
:1014A000E0E70168CA6822F02002CA600168CA68E1
:1014B00022F48072CA6001684A6922F001024A611E
:1014C000202180F83A10FFF769FD002010BD0000D0
:1014D0002DE9F041044600680169E26821F44051B9
:1014E000114301612169A068E26908436169114300
:1014F00008432168CA6849F20C639A430243CA60F0
:1015000020684169A26921F4407111434161E06999
:10151000192764253226B0F5004F354A3549206831
:101520004FF0000806D0884201D0904236D1FFF734
:10153000E7F935E0884201D0904202D1FFF7E0F9A7
:1015400001E0FFF7CDF961684A18A0FB070148EBFD
:101550000803FEF795FE0146B0FBF5F00201B1FB72
:10156000F5F06FF01803584301EB800006EBC00064
:10157000B0FBF5F000F0F80002EB4002B1FBF5F033
:10158000584301EB800006EBC000B0FBF5F000F023
:101590000700216810448860BDE8F081FFF7A0F9DA
:1015A00061688B0F8A00A0FB0701FEF769FE014608
:1015B000B0FBF5F06FF01802504301EB800006EB32
:1015C0000010B0FBF5F000F0F002B1FBF5F002EB1B
:1015D0000012B1FBF5F06FF01803584301EB8000E7
:1015E00006EB0010B0FBF5F000F00F00D1E70000B3
:1015F000001401400010014090F83910212901D059
:10160000022070478168B1F5805F016A0BD04A1CE7
:101610000262026809785160C18C491E0904090CF4
:10162000C1840ED017E009880268C1F30801516037
:1016300001690029016A02D0491C0162ECE7891C9A
:10164000FBE70168CA6822F08002CA600068C168CE
:1016500041F04001C160002070472DE9F0419846FB
:1016600017460E460446069D1DE0681C1BD02DB192
:10167000FEF7F8FFA0EB0800A84214D92068C16863
:1016800021F4D071C1602068416921F001014161FC
:10169000202084F8390084F83A00002084F83800CB
:1016A0000320BDE8F0812068006836EA000004D01D
:1016B0000020B842D9D00020F3E70120F9E700006C
:1016C0000148FFF723BB0000F8050020FEE70000FB
:1016D0000FB4054B10B503A9044A029800F03CF87A
:1016E00010BC5DF814FB00003D190008A4000020A8
:1016F0000FB4084B10B504A902AA039800F02CF807
:10170000044602A9002000F003F9204610BC5DF851
:1017100014FB0000111900080907090E002804DB5A
:1017200000F1E02080F80014704700F00F0000F195
:10173000E02080F8141D704702E008C8121F08C19D
:10174000002AFAD170477047002001E001C1121F42
:10175000002AFBD1704700002DE9FF4F8BB09A465D
:101760000F460546002606E025280BD052460D9967
:1017700090476D1C761C28780028F5D10FB03046B4
:10178000BDE8F08F0024A0460122604900E0044338
:1017900015F8013F203B02FA03F00842F7D1287800
:1017A0002E2817D115F8010F44F004042A280ED072
:1017B0006FF02F022878A0F1300109290AD808EB30
:1017C000880102EB410100EB01086D1CF2E757F8BC
:1017D000048B6D1C287869283ED006DC0028CDD00B
:1017E00063280BD0642804D136E0732810D0752804
:1017F0004BD052460D999047761C85E017F8040BA4
:101800008DF8000000208DF80100E946012003E07A
:1018100057F8049B4FF0FF3061074FF0000401D4EC
:101820000AE0641C44450DDA8442FADB19F804101E
:101830000029F6D106E0641C8442FCDB19F8041090
:101840000029F8D1264404E019F8010B52460D99FD
:101850009047641EF8D257E001CF4FF00A0B0028E2
:1018600002DA40422D2102E0210504D52B218DF81A
:101870002410012103E0E10705D02021F7E70DF155
:10188000200908910CE00021F9E701CF4FF00A0B85
:10189000F9E75946FEF750FD01F1300209F8012D34
:1018A0000028F6D1ADEB090000F1200B600701D450
:1018B0004FF00108D84502DDA8EB0B0000E0002046
:1018C0008046002406E009A85246005D0D99904725
:1018D000641C761C08988442F5DB04E030205246F4
:1018E0000D999047761CB8F10001A8F10108F5DCCC
:1018F00005E019F8010B52460D999047761CBBF193
:101900000001ABF1010BF4DC6D1C34E70928010088
:101910000A68531C0B6010707047000010B5044635
:10192000FEF703FD214682B2BDE810404FF47A7302
:101930000148FFF74DBB0000F805002038B504460C
:101940008DF800000223012269460248FFF740FBA0
:10195000204638BDB8050020FEF792FEFFF706FDD1
:10196000FFF706FCFFF774FCFFF78EFC022409A0CA
:10197000FFF7AEFE1648FFF7ABFE1648FFF7A8FECE
:10198000214615A0FFF7A4FEFFF7B2FB00F03FF8D9
:10199000FEE70000C8F4B2BBCFEBB8FCB8C4C0B6D9
:1019A000D1C0C3FBBACDC3DCC2EB2CC7EBD6B1BDF3
:1019B000D3C8C3636F6E6669673D322CB8C3C0B6C7
:1019C000D1C0C3DCC2EBCEAA31323334353600008D
:1019D000E425000884250008B5B1C7B0C4A3CABD7A
:1019E000CEAA636F6E6669673D25642CD7A2D2E2EA
:1019F0000D0A000001460020842900D0C81C704751
:101A000010B500B9012000F01DFB002010BD10B57D
:101A100000F03EFB002010BD7FB50D460446416935
:101A2000B0F9080081B1A16971B1FFF7E3FFD4E912
:101A300005128DE80700D4E900102B46226900F05A
:101A400050FC039004B070BDFFF7D4FF03A9CDE9AB
:101A50000001208A2B4682B2D4E9001000F014FC69
:101A6000012801D00020EDE70398EBE72DE9F041D4
:101A7000184C0F46054666692068001D00F01EFAE6
:101A800038B9206890F82C1001208840A169814362
:101A9000A161681C07D137B12168BDE8F0410E484B
:101AA000091D00F04FBA20683544B54245602168F1
:101AB00005D2A068BDE8F041091D00F02BBA6068AE
:101AC000091D00F027FA206B854200D22563BDE88E
:101AD000F081000044000020140700202DE9F041AF
:101AE000054600F03BFA2E4C2069401C206120681E
:101AF0002C4F10B1E06940B32DE02560206901282A
:101B000029D1002606EB860007EB800000F0F4F9EF
:101B1000761C072EF6D323488C3000F0EDF92148CF
:101B2000A03000F0E9F91F48B43000F0E5F91D4895
:101B3000C83000F0E1F91B48DC3000F0DDF919484D
:101B40008C3060601430A06005E02068E96AC06AEB
:101B5000884200D82560E06A401CE062E96A012002
:101B6000A26988401043A06101EB810007EB80006F
:101B7000291D00F0E7F900F011FAE06900280CD007
:101B80002068E96AC06A884207D207494FF080504E
:101B90000860BFF34F8FBFF36F8FBDE8F081000087
:101BA000440000203806002004ED00E010B5044693
:101BB00090F8510058B101280CD002280FD05020C5
:101BC00080F31188BFF34F8FBFF36F8FFEE7206B59
:101BD00000F0F8F92046BDE8104000F0F3B910BD60
:101BE00010484FF47051420706D0C01D0D4920F037
:101BF0000700411AC1F570510B4A00230144C2E9A4
:101C000000030839103A21F0070111604B600B60A6
:101C10000B1AC0E9001393604FF000405360D0608E
:101C2000704700002807002090000020144E154C3B
:101C3000A6F1C8074FF08058DFF84C9012E000BFC3
:101C400000F08CF9F068C568281D00F037F92069AC
:101C5000401E2061E068401EE06000F09FF92846C9
:101C6000FFF7A4FFE0680028EAD138680128F9D915
:101C7000C9F80080BFF34F8FBFF36F8FF2E700000A
:101C8000000700204400002004ED00E02DE9F047AB
:101C90009A46DDE9098481466FF00303206B03EB6C
:101CA00082021044089E20F00707780707D05020D2
:101CB00080F31188BFF34F8FBFF36F8FFEE70025CE
:101CC00061B1002023180A5C83F834200A5C12B149
:101CD000401C1028F6D384F8435001E084F83450B7
:101CE000072E00D30626E662C4E91165201D00F028
:101CF0000EF904F1180000F00AF92461C6F107009A
:101D00006462A061E56484F8505052464946384602
:101D100000F0BEF82060B8F1000F01D0C8F8004014
:101D2000BDE8F08730B5114900E011460A688242EB
:101D3000FBD34B685C18844203D140681844486068
:101D4000084643681C18944209D1084C103C24688A
:101D5000A24209D052681A4442600A6812680260BE
:101D6000814200D0086030BD0460F9E79000002097
:101D700006484168096829B14168C968C968496865
:101D8000016370474FF0FF31FAE700004400002084
:101D900008484068401C4FF0500080F3118804D080
:101DA000BFF34F8FBFF36F8FFEE7BFF34F8FBFF3CC
:101DB0006F8FFEE7980000202DE9F04105460027CF
:101DC00000F09CF9314E306808B9FFF709FFF06860
:101DD00005424BD1C5B3083568070ED005F00700A2
:101DE000C0F108000544680707D0502080F311882F
:101DF000BFF34F8FBFF36F8FFEE72DB3706885423F
:101E000034D82248103001460C6801E020460C46C8
:101E10006168A94202D221680029F7D131688C4259
:101E200024D007682168016060680837411B1029C9
:101E30000FD96019420708D0502080F31188BFF3F2
:101E40004F8FBFF36F8FFEE710E041606560FFF7D3
:101E500069FF61687068401A7060B268904200D291
:101E6000B060F06801430020C4E9000100F0D6FA38
:101E7000780707D0502080F31188BFF34F8FBFF34E
:101E80006F8FFEE73846BDE8F0810000800000203B
:101E900010B5031F4FF080741C601B1F21F001015F
:101EA0001960191F044B0B6014390A60091F6FF089
:101EB000020244380A6010BD911D0008D0E90132C9
:101EC00001699A60D0E901235A604A68824201D1CF
:101ED00082684A60002202610868401E0860086843
:101EE00070470000034B036003F15400086080203A
:101EF000106070476403002000F108014FF0FF32CA
:101F0000C0E90112C1600161002101607047002138
:101F10000161704730B50B685A1C02D000F108020D
:101F200002E0026904E02246546825689D42FAD91D
:101F300053684B6099608A60516008610168491C70
:101F4000016030BD42684A6093688B609368596055
:101F5000916008610168491C01607047502080F35E
:101F60001188BFF34F8FBFF36F8F0A494868401C39
:101F7000486001280CD10848006810F0FF0F07D016
:101F8000502080F31188BFF34F8FBFF36F8FFEE7B0
:101F9000704700009800002004ED00E00849486800
:101FA00028B1401E486001D180F31188704750204D
:101FB00080F31188BFF34F8FBFF36F8FFEE70000F0
:101FC0009800002070B5002827D0144DA0F1080417
:101FD0006168E868014207D1502080F31188BFF39F
:101FE0004F8FBFF36F8FFEE722683AB1502080F326
:101FF0001188BFF34F8FBFF36F8FFEE7814361609E
:1020000000F07CF860686968084468602046FFF763
:1020100089FEBDE8704000F001BA70BD800000206C
:102020004FF0E02000210161816105494FF47A728F
:102030000968B1FBF2F1491E416107210161704756
:102040004000002010B5020014D00F48806B38B15A
:10205000502080F31188BFF34F8FBFF36F8FFEE7DF
:1020600000F04CF800211046FFF700FD00F0D6F913
:10207000002807D105494FF080500860BFF34F8F0B
:10208000BFF36F8F10BD00004400002004ED00E09E
:1020900010B586B00024039405AA04A903A80494EB
:1020A000FFF720FFDDE903010094CDE901100023D3
:1020B0000EA11048059A00F014F90F490028486352
:1020C00011D0502080F31188BFF34F8FBFF36F8F73
:1020D0004FF0FF3008630120C8614C6106B0BDE8D5
:1020E000104000F041B806B010BD000049444C4516
:1020F000000000002D1C0008440000200248816BF5
:10210000491C816370470000440000201448816B23
:1021100011B1012141627047002141628169B1FA28
:1021200081F1C1F11F0101EB81020E4951F822300A
:102130006BB101EB820101F108034A6852684A6001
:102140009A4201D152684A60D168016070475020BC
:1021500080F31188BFF34F8FBFF36F8FFEE700004E
:1021600044000020380600201CB537480168374A73
:10217000914207D1502080F31188BFF34F8FBFF3F6
:102180006F8FFEE700683149491E884207D1502011
:1021900080F31188BFF34F8FBFF36F8FFEE72C4999
:1021A00008780190FF20087008788DF800009DF8ED
:1021B00000009DF8002000F0F000904207D0502071
:1021C00080F31188BFF34F8FBFF36F8FFEE79DF849
:1021D0000000204B00F0500018700720986005E0C8
:1021E0009DF8002052008DF80020401E9DF8002030
:1021F0001206F5D49860032807D0502080F3118888
:10220000BFF34F8FBFF36F8FFEE74FF440709860BE
:10221000019808700C482030016841F47001016099
:10222000016841F070410160FFF7FAFE002058603C
:10223000FDF7D8FF0848016841F040410160FDF713
:10224000BDFF00201CBD000000ED00E071C20F4189
:1022500000E400E09800002034EF00E010B55020CA
:1022600080F31188BFF34F8FBFF36F8F00F072F8C8
:1022700018B104494FF080500860002080F31188A5
:1022800010BD000004ED00E02DE9FF5F8346DDE9AD
:102290000E87994616468A469000FFF78DFD050089
:1022A0001CD05420FFF788FD040014D000202563C3
:1022B00084F85100CDE90240CDE900874B46324613
:1022C00051465846FFF7E2FC2046FFF707FC012085
:1022D00004B0BDE8F09F2846FFF774FE4FF0FF30D2
:1022E000F6E7F0B585B0DDE90B640A9DA6B1DCB177
:1022F000542700972663022684F85160002604AF15
:10230000CDE90246CDE90057FFF7C0FC2046FFF7B4
:10231000E5FB049805B0F0BD502080F31188BFF3B1
:102320004F8FBFF36F8FFEE7502080F31188BFF30C
:102330004F8FBFF36F8FFEE70548C16919B1806BFE
:1023400018B100207047012070470220704700003C
:10235000440000202DE9F0412E4C0027A06B40B135
:10236000206A401C2062606A00B101273846BDE83F
:10237000F0816669761C666113D16068006838B1C7
:10238000502080F31188BFF34F8FBFF36F8FFEE7AC
:102390006068A1686160A060A06A401CA062FFF74D
:1023A000E7FC206BDFF87080864209D36068006824
:1023B00080B16068C068C568686886420DD22063D5
:1023C0002068C06A00EB800158F821000128CAD9B2
:1023D0000127C8E74FF0FF30F1E7281DFFF76EFD3A
:1023E000A86A18B105F11800FFF768FDE86A012135
:1023F000A26981401143A16100EB800108EB8100DB
:10240000291DFFF79FFDE86A2168C96A8842CDD37C
:102410000127CBE744000020380600202DE9F047D3
:102420002C4D00242746A86B38B1FFF797FDA86B09
:10243000401EA863A86B40B146E0502080F311888D
:10244000BFF34F8FBFF36F8FFEE72969224E012044
:10245000D1B3A6F1B40980463068E8B1F068C46829
:1024600004F11800FFF72AFD201DFFF727FDE06AA1
:10247000AA6908FA00F11143A96100EB800109EB98
:102480008100211DFFF75EFDE06A2968C96A884264
:10249000E2D3C5F82480DFE70CB1FFF769FC2C6AB2
:1024A00044B14646FFF756FF00B16E62641EF9D193
:1024B00000202862686A38B1084901273807086097
:1024C000BFF34F8FBFF36F8FFFF768FD3846BDE84E
:1024D000F087000044000020EC06002004ED00E03E
:1024E000B42600082D130008FEFF000000000000C5
:1024F0008000000000000000000000009C26000892
:10250000C51200080100000000000000800000006B
:102510000000000000000000A8260008E9030008F1
:10252000000000000000000080000000000000002B
:10253000000000008826000891100008000000003C
:10254000000000008000000000000000000000000B
:1025500090260008C90300080000000000000000E9
:1025600080000000000000000000000000000000EB
:102570000000000001020304060708090000000033
:1025800001020304C4A3CABDB6FE28D5FDB3A3B798
:10259000A2CBCD29A3BA636F6E6669673D32CAB11B
:1025A000BDF8C8EBB8C3C4A3CABDA3ACC5E4B6D4D8
:1025B000CAB1B5C6C9C1CBB8BADCBFEC2CB2A8CC85
:1025C000D8C2CACEAA393630302CCAB2C3B4B6BCCF
:1025D000B2BBD3C3B9DCA3ACD5FDB3A3CAD5B7A2F4
:1025E0000D0A0000C4A3CABDD2BB284154C4A3CA6B
:1025F000BD29A3BA636F6E6669673D31CAB1BDF884
:10260000C8EBB8C3C4A3CABD2CD4DAB0E5D7D3C9CC
:10261000CFB5E7D6AEC7B0B0B4D7A1B0B4BCFC2834
:10262000B2BBD2AACBC9BFAA29A3AC2020202020AC
:102630002020202020D4DAB0E5D7D3C9CFB5E7BA1F
:10264000F3CBC9BFAAB0B4BCFCA3ACB4CBCAB1B580
:10265000C63273C9C1CBB8D2BBB4CE2C6174D6B864
:10266000C1EEB7A2CBCDB8FCB8C4CDEAC3FBD7D678
:10267000C3DCC2EBD6AEBAF3A3ACD6D8C6F4B0E591
:10268000D7D30D0A000000004C45445461736B0021
:10269000424545505461736B0000000050656F70F7
:1026A0006C655461736B0000426C75655461736BAB
:1026B0000000000064656661756C745461736B00A2
:1026C000E026000800000020A800000038170008DD
:1026D00088270008A800002080460000481700084E
:1026E000000031323334353600676C685F746573CF
:1026F0007400000000000000010000000000000065
:1027000000000000000000000000000000000000C9
:1027100000000000010000001000000000000000A8
:102720000024F40000000000000000000000000091
:102730000000000000000000000000000000000099
:102740000000000000000000000000000000000089
:102750000000000000000000000000000000000079
:102760000000000000000000000000000000000069
:10277000000000000000000000000000AAAAAAAAB1
:08278000000000000000000051
:040000050800018965
:00000001FF
